{
  "contractName": "SimpleStorage",
  "abi": [
    {
      "constant": true,
      "inputs": [],
      "name": "uploadTime",
      "outputs": [
        {
          "name": "",
          "type": "uint256"
        }
      ],
      "payable": false,
      "stateMutability": "view",
      "type": "function"
    },
    {
      "constant": false,
      "inputs": [
        {
          "name": "x",
          "type": "string"
        }
      ],
      "name": "set",
      "outputs": [],
      "payable": false,
      "stateMutability": "nonpayable",
      "type": "function"
    },
    {
      "constant": true,
      "inputs": [],
      "name": "get",
      "outputs": [
        {
          "name": "",
          "type": "string"
        }
      ],
      "payable": false,
      "stateMutability": "view",
      "type": "function"
    }
  ],
  "bytecode": "0x608060405234801561001057600080fd5b50610379806100206000396000f3fe608060405260043610610057576000357c0100000000000000000000000000000000000000000000000000000000900463ffffffff1680634ed3885e1461005c5780636d4ce63c14610124578063feddd2e5146101b4575b600080fd5b34801561006857600080fd5b506101226004803603602081101561007f57600080fd5b810190808035906020019064010000000081111561009c57600080fd5b8201836020820111156100ae57600080fd5b803590602001918460018302840111640100000000831117156100d057600080fd5b91908080601f016020809104026020016040519081016040528093929190818152602001838380828437600081840152601f19601f8201169050808301925050505050505091929192905050506101df565b005b34801561013057600080fd5b50610139610200565b6040518080602001828103825283818151815260200191508051906020019080838360005b8381101561017957808201518184015260208101905061015e565b50505050905090810190601f1680156101a65780820380516001836020036101000a031916815260200191505b509250505060405180910390f35b3480156101c057600080fd5b506101c96102a2565b6040518082815260200191505060405180910390f35b80600090805190602001906101f59291906102a8565b504260018190555050565b606060008054600181600116156101000203166002900480601f0160208091040260200160405190810160405280929190818152602001828054600181600116156101000203166002900480156102985780601f1061026d57610100808354040283529160200191610298565b820191906000526020600020905b81548152906001019060200180831161027b57829003601f168201915b5050505050905090565b60015481565b828054600181600116156101000203166002900490600052602060002090601f016020900481019282601f106102e957805160ff1916838001178555610317565b82800160010185558215610317579182015b828111156103165782518255916020019190600101906102fb565b5b5090506103249190610328565b5090565b61034a91905b8082111561034657600081600090555060010161032e565b5090565b9056fea165627a7a72305820a87dbb1c2da2920b621ab0f1baa0dc475e1f91574cba359f7e728f34421d109f0029",
  "source": "pragma solidity ^0.5.0;\n\ncontract SimpleStorage {\n  string ipfshashRef;\n  uint public uploadTime;\n\n  function set(string memory x) public {\n    ipfshashRef = x;\n    uploadTime = now;\n  }\n\n  function get() public view returns (string memory) {\n    return ipfshashRef;\n  }\n\n  \n}\n",
  "sourcePath": "/home/hyperledger/dapp/filetoBlockchain/contracts/SimpleStorage.sol",
  "compiler": {
    "name": "solc",
    "version": "0.5.0+commit.1d4f565a.Emscripten.clang"
  },
  "schemaVersion": "3.0.0",
  "updatedAt": "2019-01-02T23:24:35.045Z",
  "devdoc": {
    "methods": {}
  },
  "userdoc": {
    "methods": {}
  }
}